{
  "contractName": "Exchange",
  "abi": [
    {
      "constant": true,
      "inputs": [
        {
          "name": "symbolName",
          "type": "string"
        }
      ],
      "name": "getBuyOrderBook",
      "outputs": [
        {
          "name": "",
          "type": "uint256[]"
        },
        {
          "name": "",
          "type": "uint256[]"
        }
      ],
      "payable": false,
      "stateMutability": "view",
      "type": "function"
    },
    {
      "constant": true,
      "inputs": [],
      "name": "getEthBalanceInWei",
      "outputs": [
        {
          "name": "",
          "type": "uint256"
        }
      ],
      "payable": false,
      "stateMutability": "view",
      "type": "function"
    },
    {
      "constant": false,
      "inputs": [
        {
          "name": "symbolName",
          "type": "string"
        },
        {
          "name": "amount",
          "type": "uint256"
        }
      ],
      "name": "depositToken",
      "outputs": [],
      "payable": false,
      "stateMutability": "nonpayable",
      "type": "function"
    },
    {
      "constant": true,
      "inputs": [
        {
          "name": "symbolName",
          "type": "string"
        }
      ],
      "name": "getBalance",
      "outputs": [
        {
          "name": "",
          "type": "uint256"
        }
      ],
      "payable": false,
      "stateMutability": "view",
      "type": "function"
    },
    {
      "constant": false,
      "inputs": [
        {
          "name": "amountInWei",
          "type": "uint256"
        }
      ],
      "name": "withdrawEther",
      "outputs": [],
      "payable": false,
      "stateMutability": "nonpayable",
      "type": "function"
    },
    {
      "constant": false,
      "inputs": [
        {
          "name": "symbolName",
          "type": "string"
        },
        {
          "name": "priceInWei",
          "type": "uint256"
        },
        {
          "name": "amount",
          "type": "uint256"
        }
      ],
      "name": "buyToken",
      "outputs": [],
      "payable": false,
      "stateMutability": "nonpayable",
      "type": "function"
    },
    {
      "constant": true,
      "inputs": [
        {
          "name": "symbolName",
          "type": "string"
        }
      ],
      "name": "getSymbolIndex",
      "outputs": [
        {
          "name": "",
          "type": "uint8"
        }
      ],
      "payable": false,
      "stateMutability": "view",
      "type": "function"
    },
    {
      "constant": true,
      "inputs": [
        {
          "name": "symbolName",
          "type": "string"
        }
      ],
      "name": "getSellOrderBook",
      "outputs": [
        {
          "name": "",
          "type": "uint256[]"
        },
        {
          "name": "",
          "type": "uint256[]"
        }
      ],
      "payable": false,
      "stateMutability": "view",
      "type": "function"
    },
    {
      "constant": false,
      "inputs": [
        {
          "name": "symbolName",
          "type": "string"
        },
        {
          "name": "priceInWei",
          "type": "uint256"
        },
        {
          "name": "amount",
          "type": "uint256"
        }
      ],
      "name": "sellToken",
      "outputs": [],
      "payable": false,
      "stateMutability": "nonpayable",
      "type": "function"
    },
    {
      "constant": true,
      "inputs": [
        {
          "name": "symbolName",
          "type": "string"
        }
      ],
      "name": "hasToken",
      "outputs": [
        {
          "name": "",
          "type": "bool"
        }
      ],
      "payable": false,
      "stateMutability": "view",
      "type": "function"
    },
    {
      "constant": false,
      "inputs": [],
      "name": "depositEther",
      "outputs": [],
      "payable": true,
      "stateMutability": "payable",
      "type": "function"
    },
    {
      "constant": false,
      "inputs": [
        {
          "name": "symbolName",
          "type": "string"
        },
        {
          "name": "erc20TokenAddress",
          "type": "address"
        }
      ],
      "name": "addToken",
      "outputs": [],
      "payable": false,
      "stateMutability": "nonpayable",
      "type": "function"
    },
    {
      "constant": false,
      "inputs": [
        {
          "name": "symbolName",
          "type": "string"
        },
        {
          "name": "amount",
          "type": "uint256"
        }
      ],
      "name": "withdrawToken",
      "outputs": [],
      "payable": false,
      "stateMutability": "nonpayable",
      "type": "function"
    },
    {
      "constant": false,
      "inputs": [
        {
          "name": "symbolName",
          "type": "string"
        },
        {
          "name": "isSellOrder",
          "type": "bool"
        },
        {
          "name": "priceInWei",
          "type": "uint256"
        },
        {
          "name": "offerKey",
          "type": "uint256"
        }
      ],
      "name": "cancelOrder",
      "outputs": [],
      "payable": false,
      "stateMutability": "nonpayable",
      "type": "function"
    },
    {
      "constant": false,
      "inputs": [
        {
          "name": "tokenIndex",
          "type": "uint8"
        },
        {
          "name": "priceInWei",
          "type": "uint256"
        },
        {
          "name": "amount",
          "type": "uint256"
        },
        {
          "name": "sender",
          "type": "address"
        }
      ],
      "name": "addSellOffer",
      "outputs": [],
      "payable": false,
      "stateMutability": "nonpayable",
      "type": "function"
    },
    {
      "anonymous": false,
      "inputs": [
        {
          "indexed": false,
          "name": "_symbolIndex",
          "type": "uint256"
        },
        {
          "indexed": false,
          "name": "token",
          "type": "string"
        },
        {
          "indexed": false,
          "name": "_timeStamp",
          "type": "uint256"
        }
      ],
      "name": "TokenAddedToSystem",
      "type": "event"
    },
    {
      "anonymous": false,
      "inputs": [
        {
          "indexed": false,
          "name": "indexed_from",
          "type": "address"
        },
        {
          "indexed": false,
          "name": "indexed_symbolIndex",
          "type": "uint256"
        },
        {
          "indexed": false,
          "name": "_amount",
          "type": "uint256"
        },
        {
          "indexed": false,
          "name": "_timeStamp",
          "type": "uint256"
        }
      ],
      "name": "DepositForTokenReceived",
      "type": "event"
    },
    {
      "anonymous": false,
      "inputs": [
        {
          "indexed": false,
          "name": "indexed_to",
          "type": "address"
        },
        {
          "indexed": false,
          "name": "indexed_symbolIndex",
          "type": "uint256"
        },
        {
          "indexed": false,
          "name": "_amount",
          "type": "uint256"
        },
        {
          "indexed": false,
          "name": "_timeStamp",
          "type": "uint256"
        }
      ],
      "name": "WithdrawalToken",
      "type": "event"
    },
    {
      "anonymous": false,
      "inputs": [
        {
          "indexed": false,
          "name": "indexed_from",
          "type": "address"
        },
        {
          "indexed": false,
          "name": "_amount",
          "type": "uint256"
        },
        {
          "indexed": false,
          "name": "_timeStamp",
          "type": "uint256"
        }
      ],
      "name": "DepositForEthReceived",
      "type": "event"
    },
    {
      "anonymous": false,
      "inputs": [
        {
          "indexed": false,
          "name": "indexed_to",
          "type": "address"
        },
        {
          "indexed": false,
          "name": "_amount",
          "type": "uint256"
        },
        {
          "indexed": false,
          "name": "_timeStamp",
          "type": "uint256"
        }
      ],
      "name": "WithdrawalEth",
      "type": "event"
    },
    {
      "anonymous": false,
      "inputs": [
        {
          "indexed": true,
          "name": "_symbolIndex",
          "type": "uint256"
        },
        {
          "indexed": true,
          "name": "_who",
          "type": "address"
        },
        {
          "indexed": false,
          "name": "_amountTokens",
          "type": "uint256"
        },
        {
          "indexed": false,
          "name": "_priceInWei",
          "type": "uint256"
        },
        {
          "indexed": false,
          "name": "_orderKey",
          "type": "uint256"
        }
      ],
      "name": "LimitSellOrderCreated",
      "type": "event"
    },
    {
      "anonymous": false,
      "inputs": [
        {
          "indexed": true,
          "name": "_symbolIndex",
          "type": "uint256"
        },
        {
          "indexed": false,
          "name": "_amount",
          "type": "uint256"
        },
        {
          "indexed": false,
          "name": "_priceInWei",
          "type": "uint256"
        },
        {
          "indexed": false,
          "name": "_orderKey",
          "type": "uint256"
        }
      ],
      "name": "SellOrderFulfilled",
      "type": "event"
    },
    {
      "anonymous": false,
      "inputs": [
        {
          "indexed": true,
          "name": "_symbolIndex",
          "type": "uint256"
        },
        {
          "indexed": false,
          "name": "_priceInWei",
          "type": "uint256"
        },
        {
          "indexed": false,
          "name": "_orderKey",
          "type": "uint256"
        }
      ],
      "name": "SellOrderCanceled",
      "type": "event"
    },
    {
      "anonymous": false,
      "inputs": [
        {
          "indexed": true,
          "name": "_symbolIndex",
          "type": "uint256"
        },
        {
          "indexed": true,
          "name": "_who",
          "type": "address"
        },
        {
          "indexed": false,
          "name": "_amountTokens",
          "type": "uint256"
        },
        {
          "indexed": false,
          "name": "_priceInWei",
          "type": "uint256"
        },
        {
          "indexed": false,
          "name": "_orderKey",
          "type": "uint256"
        }
      ],
      "name": "LimitBuyOrderCreated",
      "type": "event"
    },
    {
      "anonymous": false,
      "inputs": [
        {
          "indexed": true,
          "name": "_symbolIndex",
          "type": "uint256"
        },
        {
          "indexed": false,
          "name": "_amount",
          "type": "uint256"
        },
        {
          "indexed": false,
          "name": "_priceInWei",
          "type": "uint256"
        },
        {
          "indexed": false,
          "name": "_orderKey",
          "type": "uint256"
        }
      ],
      "name": "BuyOrderFulfilled",
      "type": "event"
    },
    {
      "anonymous": false,
      "inputs": [
        {
          "indexed": true,
          "name": "_symbolIndex",
          "type": "uint256"
        },
        {
          "indexed": false,
          "name": "_priceInWei",
          "type": "uint256"
        },
        {
          "indexed": false,
          "name": "_orderKey",
          "type": "uint256"
        }
      ],
      "name": "BuyOrderCanceled",
      "type": "event"
    }
  ],
  "bytecode": "0x6060604052336000806101000a81548173ffffffffffffffffffffffffffffffffffffffff021916908373ffffffffffffffffffffffffffffffffffffffff160217905550614dec806100536000396000f3006060604052600436106100db576000357c0100000000000000000000000000000000000000000000000000000000900463ffffffff16806303bc4a27146100e05780631a8eb72b146101da57806333ad57e4146102035780633a51d246146102695780633bed33ce146102da5780635ab8ea33146102fd57806367fee8b41461036c578063728ff029146103e3578063851030fe146104dd5780638ea008181461054c57806398ea5fca146105c1578063b0b22c2c146105cb578063c97a413a14610647578063d1a3b025146106ad578063ebd354c014610727575b600080fd5b34156100eb57600080fd5b61013b600480803590602001908201803590602001908080601f0160208091040260200160405190810160405280939291908181526020018383808284378201915050505050509190505061077e565b604051808060200180602001838103835285818151815260200191508051906020019060200280838360005b83811015610182578082015181840152602081019050610167565b50505050905001838103825284818151815260200191508051906020019060200280838360005b838110156101c45780820151818401526020810190506101a9565b5050505090500194505050505060405180910390f35b34156101e557600080fd5b6101ed610a28565b6040518082815260200191505060405180910390f35b341561020e57600080fd5b610267600480803590602001908201803590602001908080601f01602080910402602001604051908101604052809392919081815260200183838082843782019150505050505091908035906020019091905050610a6f565b005b341561027457600080fd5b6102c4600480803590602001908201803590602001908080601f01602080910402602001604051908101604052809392919081815260200183838082843782019150505050505091905050610e0b565b6040518082815260200191505060405180910390f35b34156102e557600080fd5b6102fb6004808035906020019091905050610e8c565b005b341561030857600080fd5b61036a600480803590602001908201803590602001908080601f0160208091040260200160405190810160405280939291908181526020018383808284378201915050505050509190803590602001909190803590602001909190505061106c565b005b341561037757600080fd5b6103c7600480803590602001908201803590602001908080601f01602080910402602001604051908101604052809392919081815260200183838082843782019150505050505091905050611ec2565b604051808260ff1660ff16815260200191505060405180910390f35b34156103ee57600080fd5b61043e600480803590602001908201803590602001908080601f01602080910402602001604051908101604052809392919081815260200183838082843782019150505050505091905050611f32565b604051808060200180602001838103835285818151815260200191508051906020019060200280838360005b8381101561048557808201518184015260208101905061046a565b50505050905001838103825284818151815260200191508051906020019060200280838360005b838110156104c75780820151818401526020810190506104ac565b5050505090500194505050505060405180910390f35b34156104e857600080fd5b61054a600480803590602001908201803590602001908080601f016020809104026020016040519081016040528093929190818152602001838380828437820191505050505050919080359060200190919080359060200190919050506121f1565b005b341561055757600080fd5b6105a7600480803590602001908201803590602001908080601f0160208091040260200160405190810160405280939291908181526020018383808284378201915050505050509190505061326f565b604051808215151515815260200191505060405180910390f35b6105c9613297565b005b34156105d657600080fd5b610645600480803590602001908201803590602001908080601f0160208091040260200160405190810160405280939291908181526020018383808284378201915050505050509190803573ffffffffffffffffffffffffffffffffffffffff169060200190919050506133e7565b005b341561065257600080fd5b6106ab600480803590602001908201803590602001908080601f016020809104026020016040519081016040528093929190818152602001838380828437820191505050505050919080359060200190919050506135f5565b005b34156106b857600080fd5b610725600480803590602001908201803590602001908080601f0160208091040260200160405190810160405280939291908181526020018383808284378201915050505050509190803515159060200190919080359060200190919080359060200190919050506139c2565b005b341561073257600080fd5b61077c600480803560ff1690602001909190803590602001909190803590602001909190803573ffffffffffffffffffffffffffffffffffffffff16906020019091905050613edc565b005b610786614cf3565b61078e614cf3565b6000610798614cf3565b6107a0614cf3565b6000806000806107af8a611ec2565b965060008760ff161115156107c357600080fd5b600160008860ff1660ff168152602001908152602001600020600501546040518059106107ed5750595b90808252806020026020018201604052509550600160008860ff1660ff1681526020019081526020016000206005015460405180591061082a5750595b90808252806020026020018201604052509450600160008860ff1660ff168152602001908152602001600020600401549350600092506000600160008960ff1660ff168152602001908152602001600020600301541115610a16575b600160008860ff1660ff1681526020019081526020016000206003015484111515610a15578386848151811015156108ba57fe5b9060200190602002018181525050600160008860ff1660ff1681526020019081526020016000206002016000858152602001908152602001600020600301549150600090505b600160008860ff1660ff1681526020019081526020016000206002016000858152602001908152602001600020600401548211151561098f57600160008860ff1660ff1681526020019081526020016000206002016000858152602001908152602001600020600201600083815260200190815260200160002060000154810190508180600101925050610900565b80858481518110151561099e57fe5b9060200190602002018181525050600160008860ff1660ff168152602001908152602001600020600301548414156109d557610a15565b600160008860ff1660ff16815260200190815260200160002060020160008581526020019081526020016000206000015493508280600101935050610886565b5b85859850985050505050505050915091565b6000600460003373ffffffffffffffffffffffffffffffffffffffff1673ffffffffffffffffffffffffffffffffffffffff16815260200190815260200160002054905090565b600080610a7b8461326f565b1515610a8657600080fd5b610a8f84611ec2565b915060008260ff16111515610aa357600080fd5b600073ffffffffffffffffffffffffffffffffffffffff16600160008460ff1660ff16815260200190815260200160002060000160009054906101000a900473ffffffffffffffffffffffffffffffffffffffff1673ffffffffffffffffffffffffffffffffffffffff1614151515610b1b57600080fd5b600360003373ffffffffffffffffffffffffffffffffffffffff1673ffffffffffffffffffffffffffffffffffffffff16815260200190815260200160002060008360ff1660ff1681526020019081526020016000205483600360003373ffffffffffffffffffffffffffffffffffffffff1673ffffffffffffffffffffffffffffffffffffffff16815260200190815260200160002060008560ff1660ff168152602001908152602001600020540110151515610bd857600080fd5b600160008360ff1660ff16815260200190815260200160002060000160009054906101000a900473ffffffffffffffffffffffffffffffffffffffff169050600115158173ffffffffffffffffffffffffffffffffffffffff166323b872dd3330876000604051602001526040518463ffffffff167c0100000000000000000000000000000000000000000000000000000000028152600401808473ffffffffffffffffffffffffffffffffffffffff1673ffffffffffffffffffffffffffffffffffffffff1681526020018373ffffffffffffffffffffffffffffffffffffffff1673ffffffffffffffffffffffffffffffffffffffff1681526020018281526020019350505050602060405180830381600087803b1515610cfa57600080fd5b6102c65a03f11515610d0b57600080fd5b505050604051805190501515141515610d2357600080fd5b82600360003373ffffffffffffffffffffffffffffffffffffffff1673ffffffffffffffffffffffffffffffffffffffff16815260200190815260200160002060008460ff1660ff168152602001908152602001600020600082825401925050819055507fc0aa5496c7b01c4b317a58e270b45f383bcd6ae57f9e5124db9c0674b777649933838542604051808573ffffffffffffffffffffffffffffffffffffffff1673ffffffffffffffffffffffffffffffffffffffff1681526020018460ff16815260200183815260200182815260200194505050505060405180910390a150505050565b600080610e178361326f565b1515610e2257600080fd5b610e2b83611ec2565b9050600360003373ffffffffffffffffffffffffffffffffffffffff1673ffffffffffffffffffffffffffffffffffffffff16815260200190815260200160002060008260ff1660ff16815260200190815260200160002054915050919050565b80600460003373ffffffffffffffffffffffffffffffffffffffff1673ffffffffffffffffffffffffffffffffffffffff1681526020019081526020016000205410151515610eda57600080fd5b600460003373ffffffffffffffffffffffffffffffffffffffff1673ffffffffffffffffffffffffffffffffffffffff1681526020019081526020016000205481600460003373ffffffffffffffffffffffffffffffffffffffff1673ffffffffffffffffffffffffffffffffffffffff168152602001908152602001600020540311151515610f6957600080fd5b80600460003373ffffffffffffffffffffffffffffffffffffffff1673ffffffffffffffffffffffffffffffffffffffff168152602001908152602001600020600082825403925050819055503373ffffffffffffffffffffffffffffffffffffffff166108fc829081150290604051600060405180830381858888f193505050501515610ff657600080fd5b7fac9513adf40097763b4664bee3693d0f051127c5ac55e33f68926c1612ac5995338242604051808473ffffffffffffffffffffffffffffffffffffffff1673ffffffffffffffffffffffffffffffffffffffff168152602001838152602001828152602001935050505060405180910390a150565b60008060008060008060006110808a611ec2565b965060008760ff1611151561109457600080fd5b87890295508886101515156110a857600080fd5b8786101515156110b757600080fd5b85600460003373ffffffffffffffffffffffffffffffffffffffff1673ffffffffffffffffffffffffffffffffffffffff168152602001908152602001600020541015151561110557600080fd5b600086600460003373ffffffffffffffffffffffffffffffffffffffff1673ffffffffffffffffffffffffffffffffffffffff16815260200190815260200160002054031015151561115657600080fd5b85600460003373ffffffffffffffffffffffffffffffffffffffff1673ffffffffffffffffffffffffffffffffffffffff168152602001908152602001600020600082825403925050819055506000600160008960ff1660ff1681526020019081526020016000206009015414806111e9575088600160008960ff1660ff16815260200190815260200160002060070154115b15611291576111fa878a8a33614524565b3373ffffffffffffffffffffffffffffffffffffffff168760ff167f2ef51fa215957689865f55575d7d89840bee8fce54b23ef826fea1a304acdd3f8a8c600160008d60ff1660ff16815260200190815260200160002060020160008f81526020019081526020016000206004015460405180848152602001838152602001828152602001935050505060405180910390a3611eb6565b600160008860ff1660ff1681526020019081526020016000206007015493508792505b8884111580156112c45750600083115b15611ea057600160008860ff1660ff16815260200190815260200160002060060160008581526020019081526020016000206003015491505b600160008860ff1660ff168152602001908152602001600020600601600085815260200190815260200160002060040154821115801561133d5750600083115b15611e7c57600160008860ff1660ff1681526020019081526020016000206006016000858152602001908152602001600020600201600083815260200190815260200160002060000154905082811115156118c957888102945084600460003373ffffffffffffffffffffffffffffffffffffffff1673ffffffffffffffffffffffffffffffffffffffff16815260200190815260200160002054101515156113e557600080fd5b600460003373ffffffffffffffffffffffffffffffffffffffff1673ffffffffffffffffffffffffffffffffffffffff1681526020019081526020016000205485600460003373ffffffffffffffffffffffffffffffffffffffff1673ffffffffffffffffffffffffffffffffffffffff16815260200190815260200160002054031115151561147457600080fd5b84600460003373ffffffffffffffffffffffffffffffffffffffff1673ffffffffffffffffffffffffffffffffffffffff16815260200190815260200160002060008282540392505081905550600360003373ffffffffffffffffffffffffffffffffffffffff1673ffffffffffffffffffffffffffffffffffffffff16815260200190815260200160002060008860ff1660ff1681526020019081526020016000205481600360003373ffffffffffffffffffffffffffffffffffffffff1673ffffffffffffffffffffffffffffffffffffffff16815260200190815260200160002060008a60ff1660ff16815260200190815260200160002054011015151561157e57600080fd5b60046000600160008a60ff1660ff1681526020019081526020016000206006016000878152602001908152602001600020600201600085815260200190815260200160002060010160009054906101000a900473ffffffffffffffffffffffffffffffffffffffff1673ffffffffffffffffffffffffffffffffffffffff1673ffffffffffffffffffffffffffffffffffffffff168152602001908152602001600020548560046000600160008c60ff1660ff1681526020019081526020016000206006016000898152602001908152602001600020600201600087815260200190815260200160002060010160009054906101000a900473ffffffffffffffffffffffffffffffffffffffff1673ffffffffffffffffffffffffffffffffffffffff1673ffffffffffffffffffffffffffffffffffffffff1681526020019081526020016000205401101515156116d557600080fd5b80600360003373ffffffffffffffffffffffffffffffffffffffff1673ffffffffffffffffffffffffffffffffffffffff16815260200190815260200160002060008960ff1660ff168152602001908152602001600020600082825401925050819055506000600160008960ff1660ff1681526020019081526020016000206006016000868152602001908152602001600020600201600084815260200190815260200160002060000181905550600160008860ff1660ff1681526020019081526020016000206006016000858152602001908152602001600020600301600081548092919060010191905055508460046000600160008b60ff1660ff1681526020019081526020016000206006016000888152602001908152602001600020600201600086815260200190815260200160002060010160009054906101000a900473ffffffffffffffffffffffffffffffffffffffff1673ffffffffffffffffffffffffffffffffffffffff1673ffffffffffffffffffffffffffffffffffffffff168152602001908152602001600020600082825401925050819055508660ff167f2779ea6dd005243d83747345c715a92b3c58485538dcd17a3919a57216f192d482868560405180848152602001838152602001828152602001935050505060405180910390a28083039250611c7b565b82600160008960ff1660ff168152602001908152602001600020600601600086815260200190815260200160002060020160008481526020019081526020016000206000015411151561191b57600080fd5b838302955085600460003373ffffffffffffffffffffffffffffffffffffffff1673ffffffffffffffffffffffffffffffffffffffff1681526020019081526020016000206000828254039250508190555060046000600160008a60ff1660ff1681526020019081526020016000206006016000878152602001908152602001600020600201600085815260200190815260200160002060010160009054906101000a900473ffffffffffffffffffffffffffffffffffffffff1673ffffffffffffffffffffffffffffffffffffffff1673ffffffffffffffffffffffffffffffffffffffff168152602001908152602001600020548660046000600160008c60ff1660ff1681526020019081526020016000206006016000898152602001908152602001600020600201600087815260200190815260200160002060010160009054906101000a900473ffffffffffffffffffffffffffffffffffffffff1673ffffffffffffffffffffffffffffffffffffffff1673ffffffffffffffffffffffffffffffffffffffff168152602001908152602001600020540110151515611ac457600080fd5b82600160008960ff1660ff16815260200190815260200160002060060160008681526020019081526020016000206002016000848152602001908152602001600020600001600082825403925050819055508560046000600160008b60ff1660ff1681526020019081526020016000206006016000888152602001908152602001600020600201600086815260200190815260200160002060010160009054906101000a900473ffffffffffffffffffffffffffffffffffffffff1673ffffffffffffffffffffffffffffffffffffffff1673ffffffffffffffffffffffffffffffffffffffff1681526020019081526020016000206000828254019250508190555082600360003373ffffffffffffffffffffffffffffffffffffffff1673ffffffffffffffffffffffffffffffffffffffff16815260200190815260200160002060008960ff1660ff16815260200190815260200160002060008282540192505081905550600092508660ff167f2779ea6dd005243d83747345c715a92b3c58485538dcd17a3919a57216f192d484868560405180848152602001838152602001828152602001935050505060405180910390a25b600160008860ff1660ff16815260200190815260200160002060060160008581526020019081526020016000206004015482148015611cfe57506000600160008960ff1660ff1681526020019081526020016000206006016000868152602001908152602001600020600201600084815260200190815260200160002060000154145b15611e6f57600160008860ff1660ff1681526020019081526020016000206009016000815480929190600190039190505550600160008860ff1660ff168152602001908152602001600020600601600085815260200190815260200160002060000154841480611d9e57506000600160008960ff1660ff168152602001908152602001600020600601600086815260200190815260200160002060000154145b15611dca576000600160008960ff1660ff16815260200190815260200160002060070181905550611e6e565b600160008860ff1660ff168152602001908152602001600020600601600085815260200190815260200160002060000154600160008960ff1660ff168152602001908152602001600020600701819055506000600160008960ff1660ff1681526020019081526020016000206006016000600160008b60ff1660ff168152602001908152602001600020600701548152602001908152602001600020600101819055505b5b81806001019250506112fd565b600160008860ff1660ff1681526020019081526020016000206007015493506112b4565b6000831115611eb557611eb48a8a8561106c565b5b5b50505050505050505050565b600080600190505b600260009054906101000a900460ff1660ff168160ff16111515611f2757611f0d600160008360ff1660ff16815260200190815260200160002060010184614b6a565b15611f1a57809150611f2c565b8080600101915050611eca565b600091505b50919050565b611f3a614cf3565b611f42614cf3565b6000611f4c614cf3565b611f54614cf3565b600080600080611f638a611ec2565b965060008760ff16111515611f7757600080fd5b600160008860ff1660ff16815260200190815260200160002060090154604051805910611fa15750595b90808252806020026020018201604052509550600160008860ff1660ff16815260200190815260200160002060090154604051805910611fde5750595b90808252806020026020018201604052509450600160008860ff1660ff168152602001908152602001600020600701549350600092506000600160008960ff1660ff1681526020019081526020016000206007015411156121df575b600160008860ff1660ff16815260200190815260200160002060080154841115156121de5783868481518110151561206e57fe5b9060200190602002018181525050600160008860ff1660ff1681526020019081526020016000206006016000858152602001908152602001600020600301549150600090505b600160008860ff1660ff1681526020019081526020016000206006016000858152602001908152602001600020600401548211151561214357600160008860ff1660ff16815260200190815260200160002060060160008581526020019081526020016000206002016000838152602001908152602001600020600001548101905081806001019250506120b4565b80858481518110151561215257fe5b90602001906020020181815250506000600160008960ff1660ff168152602001908152602001600020600601600086815260200190815260200160002060000154141561219e576121de565b600160008860ff1660ff1681526020019081526020016000206006016000858152602001908152602001600020600001549350828060010193505061203a565b5b85859850985050505050505050915091565b60008060008060008060006122058a611ec2565b9650600095506000945060008760ff1611151561222157600080fd5b87600360003373ffffffffffffffffffffffffffffffffffffffff1673ffffffffffffffffffffffffffffffffffffffff16815260200190815260200160002060008960ff1660ff168152602001908152602001600020541015151561228657600080fd5b600088600360003373ffffffffffffffffffffffffffffffffffffffff1673ffffffffffffffffffffffffffffffffffffffff16815260200190815260200160002060008a60ff1660ff1681526020019081526020016000205403101515156122ee57600080fd5b87600360003373ffffffffffffffffffffffffffffffffffffffff1673ffffffffffffffffffffffffffffffffffffffff16815260200190815260200160002060008960ff1660ff168152602001908152602001600020600082825403925050819055506000600160008960ff1660ff168152602001908152602001600020600501541480612398575088600160008960ff1660ff16815260200190815260200160002060030154105b15612440576123a9878a8a33613edc565b3373ffffffffffffffffffffffffffffffffffffffff168760ff167fc7d136f10bcb424de2ff60d5473d863ed2fdcd5d352e045d89ee9581f54f6afb8a8c600160008d60ff1660ff16815260200190815260200160002060060160008f81526020019081526020016000206004015460405180848152602001838152602001828152602001935050505060405180910390a3613263565b600160008860ff1660ff1681526020019081526020016000206003015493508792505b8884101580156124735750600083115b1561324d57600160008860ff1660ff16815260200190815260200160002060020160008581526020019081526020016000206003015491505b600160008860ff1660ff16815260200190815260200160002060020160008581526020019081526020016000206004015482111580156124ec5750600083115b1561322957600160008860ff1660ff168152602001908152602001600020600201600085815260200190815260200160002060020160008381526020019081526020016000206000015490508281111515612ae757838102945080600360003373ffffffffffffffffffffffffffffffffffffffff1673ffffffffffffffffffffffffffffffffffffffff16815260200190815260200160002060008960ff1660ff16815260200190815260200160002054101515156125ab57600080fd5b600081600360003373ffffffffffffffffffffffffffffffffffffffff1673ffffffffffffffffffffffffffffffffffffffff16815260200190815260200160002060008a60ff1660ff16815260200190815260200160002054031015151561261357600080fd5b80600360003373ffffffffffffffffffffffffffffffffffffffff1673ffffffffffffffffffffffffffffffffffffffff16815260200190815260200160002060008960ff1660ff16815260200190815260200160002060008282540392505081905550600081600360003373ffffffffffffffffffffffffffffffffffffffff1673ffffffffffffffffffffffffffffffffffffffff16815260200190815260200160002060008a60ff1660ff1681526020019081526020016000205403101515156126df57600080fd5b60036000600160008a60ff1660ff1681526020019081526020016000206002016000878152602001908152602001600020600201600085815260200190815260200160002060010160009054906101000a900473ffffffffffffffffffffffffffffffffffffffff1673ffffffffffffffffffffffffffffffffffffffff1673ffffffffffffffffffffffffffffffffffffffff16815260200190815260200160002060008860ff1660ff168152602001908152602001600020548160036000600160008c60ff1660ff1681526020019081526020016000206002016000898152602001908152602001600020600201600087815260200190815260200160002060010160009054906101000a900473ffffffffffffffffffffffffffffffffffffffff1673ffffffffffffffffffffffffffffffffffffffff1673ffffffffffffffffffffffffffffffffffffffff16815260200190815260200160002060008a60ff1660ff16815260200190815260200160002054011015151561286457600080fd5b600460003373ffffffffffffffffffffffffffffffffffffffff1673ffffffffffffffffffffffffffffffffffffffff1681526020019081526020016000205485600460003373ffffffffffffffffffffffffffffffffffffffff1673ffffffffffffffffffffffffffffffffffffffff1681526020019081526020016000205401101515156128f357600080fd5b8060036000600160008b60ff1660ff1681526020019081526020016000206002016000888152602001908152602001600020600201600086815260200190815260200160002060010160009054906101000a900473ffffffffffffffffffffffffffffffffffffffff1673ffffffffffffffffffffffffffffffffffffffff1673ffffffffffffffffffffffffffffffffffffffff16815260200190815260200160002060008960ff1660ff168152602001908152602001600020600082825401925050819055506000600160008960ff1660ff168152602001908152602001600020600201600086815260200190815260200160002060020160008481526020019081526020016000206000018190555084600460003373ffffffffffffffffffffffffffffffffffffffff1673ffffffffffffffffffffffffffffffffffffffff16815260200190815260200160002060008282540192505081905550600160008860ff1660ff1681526020019081526020016000206002016000858152602001908152602001600020600301600081548092919060010191905055508660ff167fcbfa5edcd918ef1ec42746c71ac83c456f37330c83a22e44d6cfdca22d56471082868560405180848152602001838152602001828152602001935050505060405180910390a28083039250612ff9565b6000838203111515612af857600080fd5b838302955082600360003373ffffffffffffffffffffffffffffffffffffffff1673ffffffffffffffffffffffffffffffffffffffff16815260200190815260200160002060008960ff1660ff1681526020019081526020016000205410151515612b6257600080fd5b82600360003373ffffffffffffffffffffffffffffffffffffffff1673ffffffffffffffffffffffffffffffffffffffff16815260200190815260200160002060008960ff1660ff16815260200190815260200160002060008282540392505081905550600083600360003373ffffffffffffffffffffffffffffffffffffffff1673ffffffffffffffffffffffffffffffffffffffff16815260200190815260200160002060008a60ff1660ff168152602001908152602001600020540310151515612c2e57600080fd5b60036000600160008a60ff1660ff1681526020019081526020016000206002016000878152602001908152602001600020600201600085815260200190815260200160002060010160009054906101000a900473ffffffffffffffffffffffffffffffffffffffff1673ffffffffffffffffffffffffffffffffffffffff1673ffffffffffffffffffffffffffffffffffffffff16815260200190815260200160002060008860ff1660ff168152602001908152602001600020548360036000600160008c60ff1660ff1681526020019081526020016000206002016000898152602001908152602001600020600201600087815260200190815260200160002060010160009054906101000a900473ffffffffffffffffffffffffffffffffffffffff1673ffffffffffffffffffffffffffffffffffffffff1673ffffffffffffffffffffffffffffffffffffffff16815260200190815260200160002060008a60ff1660ff168152602001908152602001600020540110151515612db357600080fd5b600460003373ffffffffffffffffffffffffffffffffffffffff1673ffffffffffffffffffffffffffffffffffffffff1681526020019081526020016000205486600460003373ffffffffffffffffffffffffffffffffffffffff1673ffffffffffffffffffffffffffffffffffffffff168152602001908152602001600020540110151515612e4257600080fd5b8260036000600160008b60ff1660ff1681526020019081526020016000206002016000888152602001908152602001600020600201600086815260200190815260200160002060010160009054906101000a900473ffffffffffffffffffffffffffffffffffffffff1673ffffffffffffffffffffffffffffffffffffffff1673ffffffffffffffffffffffffffffffffffffffff16815260200190815260200160002060008960ff1660ff1681526020019081526020016000206000828254019250508190555082600160008960ff1660ff168152602001908152602001600020600201600086815260200190815260200160002060020160008481526020019081526020016000206000016000828254039250508190555085600460003373ffffffffffffffffffffffffffffffffffffffff1673ffffffffffffffffffffffffffffffffffffffff168152602001908152602001600020600082825401925050819055508660ff167fcbfa5edcd918ef1ec42746c71ac83c456f37330c83a22e44d6cfdca22d56471084868560405180848152602001838152602001828152602001935050505060405180910390a2600092505b600160008860ff1660ff1681526020019081526020016000206002016000858152602001908152602001600020600401548214801561307c57506000600160008960ff1660ff1681526020019081526020016000206002016000868152602001908152602001600020600201600084815260200190815260200160002060000154145b1561321c57600160008860ff1660ff1681526020019081526020016000206005016000815480929190600190039190505550600160008860ff1660ff16815260200190815260200160002060020160008581526020019081526020016000206001015484148061311c57506000600160008960ff1660ff168152602001908152602001600020600201600086815260200190815260200160002060010154145b15613148576000600160008960ff1660ff1681526020019081526020016000206003018190555061321b565b600160008860ff1660ff168152602001908152602001600020600201600085815260200190815260200160002060010154600160008960ff1660ff16815260200190815260200160002060030181905550600160008860ff1660ff16815260200190815260200160002060030154600160008960ff1660ff1681526020019081526020016000206002016000600160008b60ff1660ff1681526020019081526020016000206002016000888152602001908152602001600020600101548152602001908152602001600020600001819055505b5b81806001019250506124ac565b600160008860ff1660ff168152602001908152602001600020600301549350612463565b6000831115613262576132618a8a856121f1565b5b5b50505050505050505050565b60008061327b83611ec2565b60ff16141561328d5760009050613292565b600190505b919050565b600460003373ffffffffffffffffffffffffffffffffffffffff1673ffffffffffffffffffffffffffffffffffffffff1681526020019081526020016000205434600460003373ffffffffffffffffffffffffffffffffffffffff1673ffffffffffffffffffffffffffffffffffffffff168152602001908152602001600020540111151561332557600080fd5b34600460003373ffffffffffffffffffffffffffffffffffffffff1673ffffffffffffffffffffffffffffffffffffffff168152602001908152602001600020600082825401925050819055507f42dbebeb8f6fb795e3007753aef2d4b1a292dd123f6de06a4105018674150637333442604051808473ffffffffffffffffffffffffffffffffffffffff1673ffffffffffffffffffffffffffffffffffffffff168152602001838152602001828152602001935050505060405180910390a1565b3373ffffffffffffffffffffffffffffffffffffffff166000809054906101000a900473ffffffffffffffffffffffffffffffffffffffff1673ffffffffffffffffffffffffffffffffffffffff1614151561344257600080fd5b61344b8261326f565b15151561345757600080fd5b6002600081819054906101000a900460ff168092919060010191906101000a81548160ff021916908360ff160217905550508160016000600260009054906101000a900460ff1660ff1660ff16815260200190815260200160002060010190805190602001906134c8929190614d07565b508060016000600260009054906101000a900460ff1660ff1660ff16815260200190815260200160002060000160006101000a81548173ffffffffffffffffffffffffffffffffffffffff021916908373ffffffffffffffffffffffffffffffffffffffff1602179055507f6c71eb76d5d82031f490d3e44dc01d298444e569078199b14510435d81b59ff7600260009054906101000a900460ff168342604051808460ff16815260200180602001838152602001828103825284818151815260200191508051906020019080838360005b838110156135b557808201518184015260208101905061359a565b50505050905090810190601f1680156135e25780820380516001836020036101000a031916815260200191505b5094505050505060405180910390a15050565b6000806136018461326f565b151561360c57600080fd5b61361584611ec2565b915060008260ff1611151561362957600080fd5b600073ffffffffffffffffffffffffffffffffffffffff16600160008460ff1660ff16815260200190815260200160002060000160009054906101000a900473ffffffffffffffffffffffffffffffffffffffff1673ffffffffffffffffffffffffffffffffffffffff16141515156136a157600080fd5b82600360003373ffffffffffffffffffffffffffffffffffffffff1673ffffffffffffffffffffffffffffffffffffffff16815260200190815260200160002060008460ff1660ff168152602001908152602001600020541015151561370657600080fd5b600360003373ffffffffffffffffffffffffffffffffffffffff1673ffffffffffffffffffffffffffffffffffffffff16815260200190815260200160002060008360ff1660ff1681526020019081526020016000205483600360003373ffffffffffffffffffffffffffffffffffffffff1673ffffffffffffffffffffffffffffffffffffffff16815260200190815260200160002060008560ff1660ff1681526020019081526020016000205403111515156137c357600080fd5b600160008360ff1660ff16815260200190815260200160002060000160009054906101000a900473ffffffffffffffffffffffffffffffffffffffff16905082600360003373ffffffffffffffffffffffffffffffffffffffff1673ffffffffffffffffffffffffffffffffffffffff16815260200190815260200160002060008460ff1660ff16815260200190815260200160002060008282540392505081905550600115158173ffffffffffffffffffffffffffffffffffffffff1663a9059cbb33866000604051602001526040518363ffffffff167c0100000000000000000000000000000000000000000000000000000000028152600401808373ffffffffffffffffffffffffffffffffffffffff1673ffffffffffffffffffffffffffffffffffffffff16815260200182815260200192505050602060405180830381600087803b151561391557600080fd5b6102c65a03f1151561392657600080fd5b50505060405180519050151514151561393e57600080fd5b7faed5c5198ccd7615c0128c72fcfc060e97b14315cb791a46bf42b5b6f36c38b933838542604051808573ffffffffffffffffffffffffffffffffffffffff1673ffffffffffffffffffffffffffffffffffffffff1681526020018460ff16815260200183815260200182815260200194505050505060405180910390a150505050565b60008060006139d087611ec2565b925060008360ff161115156139e457600080fd5b8515613c82573373ffffffffffffffffffffffffffffffffffffffff16600160008560ff1660ff1681526020019081526020016000206006016000878152602001908152602001600020600201600086815260200190815260200160002060010160009054906101000a900473ffffffffffffffffffffffffffffffffffffffff1673ffffffffffffffffffffffffffffffffffffffff16141515613a8857600080fd5b600160008460ff1660ff16815260200190815260200160002060060160008681526020019081526020016000206002016000858152602001908152602001600020600001549150600360003373ffffffffffffffffffffffffffffffffffffffff1673ffffffffffffffffffffffffffffffffffffffff16815260200190815260200160002060008460ff1660ff1681526020019081526020016000205482600360003373ffffffffffffffffffffffffffffffffffffffff1673ffffffffffffffffffffffffffffffffffffffff16815260200190815260200160002060008660ff1660ff168152602001908152602001600020540110151515613b8c57600080fd5b81600360003373ffffffffffffffffffffffffffffffffffffffff1673ffffffffffffffffffffffffffffffffffffffff16815260200190815260200160002060008560ff1660ff168152602001908152602001600020600082825401925050819055506000600160008560ff1660ff16815260200190815260200160002060060160008781526020019081526020016000206002016000868152602001908152602001600020600001819055508260ff167fffac5f4941e92bc6814610a825eeff0ae9bb4a17d47c0e2353c6889b2b550fb88686604051808381526020018281526020019250505060405180910390a2613ed3565b3373ffffffffffffffffffffffffffffffffffffffff16600160008560ff1660ff1681526020019081526020016000206002016000878152602001908152602001600020600201600086815260200190815260200160002060010160009054906101000a900473ffffffffffffffffffffffffffffffffffffffff1673ffffffffffffffffffffffffffffffffffffffff16141515613d2057600080fd5b84600160008560ff1660ff1681526020019081526020016000206002016000878152602001908152602001600020600201600086815260200190815260200160002060000154029050600460003373ffffffffffffffffffffffffffffffffffffffff1673ffffffffffffffffffffffffffffffffffffffff1681526020019081526020016000205481600460003373ffffffffffffffffffffffffffffffffffffffff1673ffffffffffffffffffffffffffffffffffffffff168152602001908152602001600020540110151515613df857600080fd5b80600460003373ffffffffffffffffffffffffffffffffffffffff1673ffffffffffffffffffffffffffffffffffffffff168152602001908152602001600020600082825401925050819055506000600160008560ff1660ff16815260200190815260200160002060020160008781526020019081526020016000206002016000868152602001908152602001600020600001819055508260ff167f5f2fdca15d8ab2ad3f590066add3054471b3603ca44a66f12e124e9c97ec19558686604051808381526020018281526020019250505060405180910390a25b50505050505050565b600080600080600160008960ff1660ff16815260200190815260200160002060060160008881526020019081526020016000206004016000815480929190600101919050555060408051908101604052808781526020018673ffffffffffffffffffffffffffffffffffffffff16815250600160008a60ff1660ff16815260200190815260200160002060060160008981526020019081526020016000206002016000600160008c60ff1660ff16815260200190815260200160002060060160008b81526020019081526020016000206004015481526020019081526020016000206000820151816000015560208201518160010160006101000a81548173ffffffffffffffffffffffffffffffffffffffff021916908373ffffffffffffffffffffffffffffffffffffffff16021790555090505060018060008a60ff1660ff168152602001908152602001600020600601600089815260200190815260200160002060040154141561451a5760018060008a60ff1660ff168152602001908152602001600020600601600089815260200190815260200160002060030181905550600160008960ff1660ff16815260200190815260200160002060090160008154809291906001019190505550600160008960ff1660ff168152602001908152602001600020600701549350600160008960ff1660ff16815260200190815260200160002060080154925060008314806140f757508683105b1561425e576000841415614197576000600160008a60ff1660ff1681526020019081526020016000206006016000898152602001908152602001600020600001819055506000600160008a60ff1660ff16815260200190815260200160002060060160008981526020019081526020016000206001018190555086600160008a60ff1660ff16815260200190815260200160002060070181905550614238565b86600160008a60ff1660ff16815260200190815260200160002060060160008581526020019081526020016000206000018190555082600160008a60ff1660ff1681526020019081526020016000206006016000898152602001908152602001600020600101819055506000600160008a60ff1660ff1681526020019081526020016000206006016000898152602001908152602001600020600001819055505b86600160008a60ff1660ff16815260200190815260200160002060080181905550614519565b8684111561432c5786600160008a60ff1660ff16815260200190815260200160002060060160008681526020019081526020016000206001018190555083600160008a60ff1660ff1681526020019081526020016000206006016000898152602001908152602001600020600001819055506000600160008a60ff1660ff16815260200190815260200160002060060160008981526020019081526020016000206001018190555086600160008a60ff1660ff16815260200190815260200160002060070181905550614518565b600160008960ff1660ff168152602001908152602001600020600701549150600090505b60008211801561435e575080155b156145175786821080156143a1575086600160008a60ff1660ff168152602001908152602001600020600601600084815260200190815260200160002060000154115b156144df5781600160008a60ff1660ff168152602001908152602001600020600601600089815260200190815260200160002060010181905550600160008960ff1660ff168152602001908152602001600020600601600083815260200190815260200160002060000154600160008a60ff1660ff16815260200190815260200160002060060160008981526020019081526020016000206000018190555086600160008a60ff1660ff1681526020019081526020016000206006016000600160008c60ff1660ff16815260200190815260200160002060060160008681526020019081526020016000206000015481526020019081526020016000206001018190555086600160008a60ff1660ff168152602001908152602001600020600601600084815260200190815260200160002060000181905550600190505b600160008960ff1660ff1681526020019081526020016000206006016000838152602001908152602001600020600001549150614350565b5b5b5b5050505050505050565b600080600080600160008960ff1660ff16815260200190815260200160002060020160008881526020019081526020016000206004016000815480929190600101919050555060408051908101604052808781526020018673ffffffffffffffffffffffffffffffffffffffff16815250600160008a60ff1660ff16815260200190815260200160002060020160008981526020019081526020016000206002016000600160008c60ff1660ff16815260200190815260200160002060020160008b81526020019081526020016000206004015481526020019081526020016000206000820151816000015560208201518160010160006101000a81548173ffffffffffffffffffffffffffffffffffffffff021916908373ffffffffffffffffffffffffffffffffffffffff16021790555090505060018060008a60ff1660ff1681526020019081526020016000206002016000898152602001908152602001600020600401541415614b605760018060008a60ff1660ff168152602001908152602001600020600201600089815260200190815260200160002060030181905550600160008960ff1660ff16815260200190815260200160002060050160008154809291906001019190505550600160008960ff1660ff168152602001908152602001600020600301549350600160008960ff1660ff168152602001908152602001600020600401549250600083148061473f57508683115b156148a55760008414156147de5786600160008a60ff1660ff168152602001908152602001600020600301819055506000600160008a60ff1660ff16815260200190815260200160002060020160008981526020019081526020016000206001018190555086600160008a60ff1660ff16815260200190815260200160002060020160008981526020019081526020016000206000018190555061487f565b86600160008a60ff1660ff1681526020019081526020016000206002016000858152602001908152602001600020600101819055506000600160008a60ff1660ff16815260200190815260200160002060020160008981526020019081526020016000206001018190555082600160008a60ff1660ff1681526020019081526020016000206002016000898152602001908152602001600020600001819055505b86600160008a60ff1660ff16815260200190815260200160002060040181905550614b5f565b838711156149725786600160008a60ff1660ff16815260200190815260200160002060020160008681526020019081526020016000206000018190555083600160008a60ff1660ff16815260200190815260200160002060020160008981526020019081526020016000206001018190555086600160008a60ff1660ff16815260200190815260200160002060020160008981526020019081526020016000206000018190555086600160008a60ff1660ff16815260200190815260200160002060030181905550614b5e565b600160008960ff1660ff168152602001908152602001600020600301549150600090505b6000821180156149a4575080155b15614b5d5786821080156149e7575086600160008a60ff1660ff168152602001908152602001600020600201600084815260200190815260200160002060000154115b15614b2557600160008960ff1660ff168152602001908152602001600020600201600083815260200190815260200160002060000154600160008a60ff1660ff16815260200190815260200160002060020160008981526020019081526020016000206000018190555086600160008a60ff1660ff1681526020019081526020016000206002016000600160008c60ff1660ff16815260200190815260200160002060020160008681526020019081526020016000206000015481526020019081526020016000206001018190555086600160008a60ff1660ff16815260200190815260200160002060020160008481526020019081526020016000206000018190555081600160008a60ff1660ff168152602001908152602001600020600201600089815260200190815260200160002060010181905550600190505b600160008960ff1660ff1681526020019081526020016000206002016000838152602001908152602001600020600101549150614996565b5b5b5b5050505050505050565b600080614b75614d87565b6000859250849150815183805460018160011615610100020316600290049050141515614ba55760009350614cea565b600090505b82805460018160011615610100020316600290049050811015614ce5578181815181101515614bd557fe5b9060200101517f010000000000000000000000000000000000000000000000000000000000000090047f0100000000000000000000000000000000000000000000000000000000000000027effffffffffffffffffffffffffffffffffffffffffffffffffffffffffffff191683828154600181600116156101000203166002900481101515614c6157fe5b815460011615614c805790600052602060002090602091828204019190065b9054901a7f0100000000000000000000000000000000000000000000000000000000000000027effffffffffffffffffffffffffffffffffffffffffffffffffffffffffffff1916141515614cd85760009350614cea565b8080600101915050614baa565b600193505b50505092915050565b602060405190810160405280600081525090565b828054600181600116156101000203166002900490600052602060002090601f016020900481019282601f10614d4857805160ff1916838001178555614d76565b82800160010185558215614d76579182015b82811115614d75578251825591602001919060010190614d5a565b5b509050614d839190614d9b565b5090565b602060405190810160405280600081525090565b614dbd91905b80821115614db9576000816000905550600101614da1565b5090565b905600a165627a7a7230582027fe9178b5d6cd48daef3cd9dde2539396fb69ff1ef6dccb17041c011a3e8ddb0029",
  "source": "pragma solidity ^0.4.15;\n\nimport \"./owned.sol\";\nimport \"./FixedSupplyToken.sol\";\n\ncontract Exchange is owned {\n    \n    \n    //GENERAL STRUCTURE\n    \n    //its a stack\n    struct Offer {\n        uint amount;\n        address who;\n    }\n    \n    //its a linked list\n    struct OrderBook {\n        uint higherPrice;\n        uint lowerPrice;\n        mapping(uint=>Offer) offers;\n        uint offerKey;\n        uint offerLength;\n    }\n    \n    struct Token {\n        address tokenContract;\n        string symbolName;\n        \n        mapping(uint=>OrderBook) buyOrderBook;\n        uint curBuyPrice;\n        uint lowestBuyPrice;\n        uint amountBuyPrices;\n        \n        mapping(uint=>OrderBook) sellOrderBook;\n        uint curSellPrice;\n        uint highestSellPrice;\n        uint amountSellPrices;\n    }\n    \n    mapping(uint8 => Token) tokens;\n    \n    uint8 symbolNameIndex;\n    \n    \n    //BALANCES DATA STRUCTURE\n    \n    mapping(address => mapping(uint8 => uint)) tokenBalanceForAddress;\n    \n    mapping(address => uint) ethBalanceForAddress;\n    \n    //EVENTS\n    event TokenAddedToSystem(uint _symbolIndex, string token, uint _timeStamp);\n    event DepositForTokenReceived(address indexed_from, uint indexed_symbolIndex, uint _amount, uint _timeStamp);\n    event WithdrawalToken(address indexed_to, uint indexed_symbolIndex, uint _amount, uint _timeStamp);\n    event DepositForEthReceived(address indexed_from, uint _amount, uint _timeStamp);\n    event WithdrawalEth(address indexed_to, uint _amount, uint _timeStamp);\n    event LimitSellOrderCreated(uint indexed _symbolIndex, address indexed _who, uint _amountTokens, uint _priceInWei, uint _orderKey);\n    event SellOrderFulfilled(uint indexed _symbolIndex, uint _amount, uint _priceInWei, uint _orderKey);\n    event SellOrderCanceled(uint indexed _symbolIndex, uint _priceInWei, uint _orderKey);\n    event LimitBuyOrderCreated(uint indexed _symbolIndex, address indexed _who, uint _amountTokens, uint _priceInWei, uint _orderKey);\n    event BuyOrderFulfilled(uint indexed _symbolIndex, uint _amount, uint _priceInWei, uint _orderKey);\n    event BuyOrderCanceled(uint indexed _symbolIndex, uint _priceInWei, uint _orderKey); \n    \n    \n    //FUNDS MANAGEMENT\n    \n    function depositEther()payable {\n      require(ethBalanceForAddress[msg.sender]+msg.value>ethBalanceForAddress[msg.sender]);\n      ethBalanceForAddress[msg.sender]+=msg.value;\n      DepositForEthReceived(msg.sender, msg.value, now);\n    }\n    \n    function withdrawEther(uint amountInWei){\n        require(ethBalanceForAddress[msg.sender]>=amountInWei);\n        require(ethBalanceForAddress[msg.sender]-amountInWei<=ethBalanceForAddress[msg.sender]);\n        ethBalanceForAddress[msg.sender]-=amountInWei;\n        msg.sender.transfer(amountInWei);\n        WithdrawalEth(msg.sender, amountInWei, now);\n    }\n    \n    function getEthBalanceInWei()constant returns(uint){\n        return ethBalanceForAddress[msg.sender];\n    }\n    \n    //TOKEN MANAGEMENT\n    \n    function addToken(string symbolName, address erc20TokenAddress)onlyOwner {\n        require(!hasToken(symbolName));\n        symbolNameIndex++;\n        tokens[symbolNameIndex].symbolName = symbolName;\n        tokens[symbolNameIndex].tokenContract = erc20TokenAddress;\n        TokenAddedToSystem(symbolNameIndex, symbolName, now);\n    }\n    \n    function hasToken(string symbolName)constant returns(bool){\n        if(getSymbolIndex(symbolName)==0){\n            return false;\n        }\n        return true;\n    }\n    \n    function getSymbolIndex(string symbolName)constant returns(uint8){\n        for(uint8 j=1;j<=symbolNameIndex;j++) {\n            if(stringComparison(tokens[j].symbolName, symbolName)){\n                return j;\n            }\n        }\n        return 0;\n    }\n    \n    //DEPOSIT AND WITHDRAW TOKENS\n    \n    function depositToken(string symbolName, uint amount){\n        require(hasToken(symbolName));\n        uint8 tokenIndex = getSymbolIndex(symbolName);\n\n        require(tokenIndex>0);\n        require(tokens[tokenIndex].tokenContract!=address(0));\n\n        require(tokenBalanceForAddress[msg.sender][tokenIndex] + amount >= tokenBalanceForAddress[msg.sender][tokenIndex]);\n\n        ERC20Interface token = ERC20Interface(tokens[tokenIndex].tokenContract);\n\n        require(token.transferFrom(msg.sender,address(this), amount)==true);\n        tokenBalanceForAddress[msg.sender][tokenIndex]+=amount;\n        DepositForTokenReceived(msg.sender, tokenIndex, amount, now);\n\n    }\n    \n    function withdrawToken(string symbolName, uint amount){\n        require(hasToken(symbolName));\n        uint8 tokenIndex = getSymbolIndex(symbolName);\n\n        require(tokenIndex>0);\n        require(tokens[tokenIndex].tokenContract!=address(0));\n\n        require(tokenBalanceForAddress[msg.sender][tokenIndex]>=amount);\n        require(tokenBalanceForAddress[msg.sender][tokenIndex] - amount <= tokenBalanceForAddress[msg.sender][tokenIndex]);\n\n        ERC20Interface token = ERC20Interface(tokens[tokenIndex].tokenContract);\n\n        tokenBalanceForAddress[msg.sender][tokenIndex]-=amount;\n\n        require(token.transfer(msg.sender, amount)==true);\n        \n        WithdrawalToken(msg.sender, tokenIndex, amount, now);\n    }\n    \n    function getBalance(string symbolName)constant returns(uint){\n        require(hasToken(symbolName));\n        uint8 tokenIndex = getSymbolIndex(symbolName);\n        return tokenBalanceForAddress[msg.sender][tokenIndex];\n    }\n    \n    //PLACE ORDERS\n    \n    function buyToken(string symbolName, uint priceInWei, uint amount){\n        uint8 tokenNameIndex = getSymbolIndex(symbolName);\n        require(tokenNameIndex>0);\n        uint totalEtherRequired = priceInWei * amount;\n        uint total_amount_ether_available;\n        require(totalEtherRequired>=priceInWei);\n        require(totalEtherRequired>=amount);\n        require(ethBalanceForAddress[msg.sender]>=totalEtherRequired);\n        require(ethBalanceForAddress[msg.sender]-totalEtherRequired>=0);\n        ethBalanceForAddress[msg.sender] -= totalEtherRequired;\n\n        if(tokens[tokenNameIndex].amountSellPrices==0 || (tokens[tokenNameIndex].curSellPrice>priceInWei)){\n                addBuyOffer(tokenNameIndex, priceInWei, amount, msg.sender);\n                LimitBuyOrderCreated(tokenNameIndex, msg.sender, amount, priceInWei, tokens[tokenNameIndex].buyOrderBook[priceInWei].offerLength);\n        } else{\n            //its a market and should be fullfilled\n            uint whilePrice = tokens[tokenNameIndex].curSellPrice;\n            uint amountRequired = amount;\n\n            while(whilePrice<=priceInWei && amountRequired>0){\n                uint offerKey = tokens[tokenNameIndex].sellOrderBook[whilePrice].offerKey;\n\n                while(offerKey<=tokens[tokenNameIndex].sellOrderBook[whilePrice].offerLength && amountRequired>0){\n                    uint amountAvailableToSell = tokens[tokenNameIndex].sellOrderBook[whilePrice].offers[offerKey].amount;\n\n                    if(amountAvailableToSell<=amountRequired){\n                       total_amount_ether_available = amountAvailableToSell * priceInWei;\n                        require(ethBalanceForAddress[msg.sender] >= total_amount_ether_available);\n                        require(ethBalanceForAddress[msg.sender] - total_amount_ether_available <= ethBalanceForAddress[msg.sender]);\n                        ethBalanceForAddress[msg.sender]-=total_amount_ether_available;\n                        require(tokenBalanceForAddress[msg.sender][tokenNameIndex] + amountAvailableToSell >= tokenBalanceForAddress[msg.sender][tokenNameIndex]);\n                        require(ethBalanceForAddress[tokens[tokenNameIndex].sellOrderBook[whilePrice].offers[offerKey].who] + total_amount_ether_available >= ethBalanceForAddress[tokens[tokenNameIndex].sellOrderBook[whilePrice].offers[offerKey].who]);\n                        tokenBalanceForAddress[msg.sender][tokenNameIndex]+=amountAvailableToSell;\n                        tokens[tokenNameIndex].sellOrderBook[whilePrice].offers[offerKey].amount=0;\n                        tokens[tokenNameIndex].sellOrderBook[whilePrice].offerKey++;\n                        ethBalanceForAddress[tokens[tokenNameIndex].sellOrderBook[whilePrice].offers[offerKey].who]+=total_amount_ether_available;\n                        BuyOrderFulfilled(tokenNameIndex, amountAvailableToSell, whilePrice, offerKey);\n\n                        amountRequired-=amountAvailableToSell;                    \n                    }\n                    else{\n                        require(tokens[tokenNameIndex].sellOrderBook[whilePrice].offers[offerKey].amount > amountRequired);//sanity\n                        totalEtherRequired = amountRequired * whilePrice;\n                        ethBalanceForAddress[msg.sender] -= totalEtherRequired;\n                        require(ethBalanceForAddress[tokens[tokenNameIndex].sellOrderBook[whilePrice].offers[offerKey].who] + totalEtherRequired >= ethBalanceForAddress[tokens[tokenNameIndex].sellOrderBook[whilePrice].offers[offerKey].who]);\n\n                        tokens[tokenNameIndex].sellOrderBook[whilePrice].offers[offerKey].amount-=amountRequired;\n                        ethBalanceForAddress[tokens[tokenNameIndex].sellOrderBook[whilePrice].offers[offerKey].who]+=totalEtherRequired;\n                        tokenBalanceForAddress[msg.sender][tokenNameIndex]+=amountRequired;\n                        amountRequired=0;\n                        BuyOrderFulfilled(tokenNameIndex, amountRequired, whilePrice, offerKey);\n\n\n                    }\n\n                    if(offerKey==tokens[tokenNameIndex].sellOrderBook[whilePrice].offerLength && tokens[tokenNameIndex].sellOrderBook[whilePrice].offers[offerKey].amount==0){\n                        tokens[tokenNameIndex].amountSellPrices--;\n\n                        if(whilePrice==tokens[tokenNameIndex].sellOrderBook[whilePrice].higherPrice || tokens[tokenNameIndex].sellOrderBook[whilePrice].higherPrice==0){\n                            tokens[tokenNameIndex].curSellPrice=0;\n                        }else{\n                            tokens[tokenNameIndex].curSellPrice=tokens[tokenNameIndex].sellOrderBook[whilePrice].higherPrice;\n                            tokens[tokenNameIndex].sellOrderBook[tokens[tokenNameIndex].curSellPrice].lowerPrice=0;\n                        }\n                    }\n                    offerKey++;\n                }\n                whilePrice = tokens[tokenNameIndex].curSellPrice;\n            }\n\n            if(amountRequired>0){\n                buyToken(symbolName, priceInWei, amountRequired);\n            }\n        }\n    }\n    \n    function addBuyOffer(uint8 tokenNameIndex, uint priceInWei, uint amount, address sender)internal{\n        tokens[tokenNameIndex].buyOrderBook[priceInWei].offerLength++;\n        tokens[tokenNameIndex].buyOrderBook[priceInWei].offers[tokens[tokenNameIndex].buyOrderBook[priceInWei].offerLength]=Offer(amount, sender);\n        if(tokens[tokenNameIndex].buyOrderBook[priceInWei].offerLength==1){\n            tokens[tokenNameIndex].buyOrderBook[priceInWei].offerKey=1;\n            tokens[tokenNameIndex].amountBuyPrices++;\n            uint currBuyPrice = tokens[tokenNameIndex].curBuyPrice;\n            uint lowestBuyPrice = tokens[tokenNameIndex].lowestBuyPrice;\n\n            if(lowestBuyPrice==0 || lowestBuyPrice>priceInWei){\n                if(currBuyPrice==0){\n                    tokens[tokenNameIndex].curBuyPrice = priceInWei;\n                    tokens[tokenNameIndex].buyOrderBook[priceInWei].lowerPrice = 0;\n                    tokens[tokenNameIndex].buyOrderBook[priceInWei].higherPrice = priceInWei;\n                }\n                else{\n                    tokens[tokenNameIndex].buyOrderBook[lowestBuyPrice].lowerPrice = priceInWei;\n                    tokens[tokenNameIndex].buyOrderBook[priceInWei].lowerPrice = 0;\n                    tokens[tokenNameIndex].buyOrderBook[priceInWei].higherPrice = lowestBuyPrice;\n                }\n                tokens[tokenNameIndex].lowestBuyPrice = priceInWei;\n            }\n\n            else if(priceInWei>currBuyPrice){\n                tokens[tokenNameIndex].buyOrderBook[currBuyPrice].higherPrice = priceInWei;\n                tokens[tokenNameIndex].buyOrderBook[priceInWei].lowerPrice = currBuyPrice;\n                tokens[tokenNameIndex].buyOrderBook[priceInWei].higherPrice = priceInWei;\n                tokens[tokenNameIndex].curBuyPrice = priceInWei;\n            }\n            else{\n                uint buyPrice = tokens[tokenNameIndex].curBuyPrice;\n                bool posFound = false;\n\n                while(buyPrice>0 && !posFound){\n                    if(buyPrice<priceInWei && (tokens[tokenNameIndex].buyOrderBook[buyPrice].higherPrice>priceInWei)){\n                    tokens[tokenNameIndex].buyOrderBook[priceInWei].higherPrice = tokens[tokenNameIndex].buyOrderBook[buyPrice].higherPrice;\n                    tokens[tokenNameIndex].buyOrderBook[tokens[tokenNameIndex].buyOrderBook[buyPrice].higherPrice].lowerPrice = priceInWei;\n                    tokens[tokenNameIndex].buyOrderBook[buyPrice].higherPrice = priceInWei;\n                    tokens[tokenNameIndex].buyOrderBook[priceInWei].lowerPrice = buyPrice;\n                    posFound = true;\n                    }\n\n                    buyPrice = tokens[tokenNameIndex].buyOrderBook[buyPrice].lowerPrice;\n                } \n            }\n        }\n    }\n    function sellToken(string symbolName, uint priceInWei, uint amount){\n        uint8 tokenNameIndex = getSymbolIndex(symbolName);\n        uint total_amount_ether_necessary = 0;\n        uint total_amount_ether_available = 0;\n        require(tokenNameIndex>0);\n        require(tokenBalanceForAddress[msg.sender][tokenNameIndex]>=amount);\n        require(tokenBalanceForAddress[msg.sender][tokenNameIndex] - amount>=0);\n\n        tokenBalanceForAddress[msg.sender][tokenNameIndex]-=amount;\n\n        if(tokens[tokenNameIndex].amountBuyPrices == 0 || tokens[tokenNameIndex].curBuyPrice<priceInWei){\n            addSellOffer(tokenNameIndex, priceInWei, amount, msg.sender);\n            LimitSellOrderCreated(tokenNameIndex, msg.sender, amount, priceInWei, tokens[tokenNameIndex].sellOrderBook[priceInWei].offerLength);\n\n        }else{\n            //its a market order and can be executed right away\n            \n            //its a market order which can be served by current sell orders;\n            uint whilePrice = tokens[tokenNameIndex].curBuyPrice;\n            uint amountRequired = amount;\n            while(whilePrice>=priceInWei && amountRequired>0){\n                uint offerKey = tokens[tokenNameIndex].buyOrderBook[whilePrice].offerKey;\n                while(offerKey<=tokens[tokenNameIndex].buyOrderBook[whilePrice].offerLength &&  amountRequired>0){\n                uint amountAvailable = tokens[tokenNameIndex].buyOrderBook[whilePrice].offers[offerKey].amount;\n                if(amountAvailable<=amountRequired){\n                    total_amount_ether_available = amountAvailable * whilePrice;\n                    require(tokenBalanceForAddress[msg.sender][tokenNameIndex]>=amountAvailable);\n                    require(tokenBalanceForAddress[msg.sender][tokenNameIndex]-amountAvailable>=0);\n                    tokenBalanceForAddress[msg.sender][tokenNameIndex] -= amountAvailable;\n                    require(tokenBalanceForAddress[msg.sender][tokenNameIndex] - amountAvailable >= 0);\n                    require(tokenBalanceForAddress[tokens[tokenNameIndex].buyOrderBook[whilePrice].offers[offerKey].who][tokenNameIndex] + amountAvailable >= tokenBalanceForAddress[tokens[tokenNameIndex].buyOrderBook[whilePrice].offers[offerKey].who][tokenNameIndex]);\n                    require(ethBalanceForAddress[msg.sender] + total_amount_ether_available >= ethBalanceForAddress[msg.sender]);\n                    tokenBalanceForAddress[tokens[tokenNameIndex].buyOrderBook[whilePrice].offers[offerKey].who][tokenNameIndex]+=amountAvailable;\n                    tokens[tokenNameIndex].buyOrderBook[whilePrice].offers[offerKey].amount=0;\n                    ethBalanceForAddress[msg.sender]+=total_amount_ether_available;\n                    tokens[tokenNameIndex].buyOrderBook[whilePrice].offerKey++;\n                    SellOrderFulfilled(tokenNameIndex, amountAvailable, whilePrice, offerKey);\n                    amountRequired -= amountAvailable;\n                }\n                else{\n                    require(amountAvailable-amountRequired>0);\n                    total_amount_ether_necessary = amountRequired * whilePrice;\n                    require(tokenBalanceForAddress[msg.sender][tokenNameIndex] >= amountRequired);\n                    tokenBalanceForAddress[msg.sender][tokenNameIndex]-=amountRequired;\n                    require(tokenBalanceForAddress[msg.sender][tokenNameIndex] - amountRequired >= 0);\n                    require(tokenBalanceForAddress[tokens[tokenNameIndex].buyOrderBook[whilePrice].offers[offerKey].who][tokenNameIndex] + amountRequired >= tokenBalanceForAddress[tokens[tokenNameIndex].buyOrderBook[whilePrice].offers[offerKey].who][tokenNameIndex]);\n                    require(ethBalanceForAddress[msg.sender] + total_amount_ether_necessary >= ethBalanceForAddress[msg.sender]);\n                    tokenBalanceForAddress[tokens[tokenNameIndex].buyOrderBook[whilePrice].offers[offerKey].who][tokenNameIndex]+=amountRequired;\n                    tokens[tokenNameIndex].buyOrderBook[whilePrice].offers[offerKey].amount-=amountRequired;\n                    ethBalanceForAddress[msg.sender]+=total_amount_ether_necessary;\n                    SellOrderFulfilled(tokenNameIndex, amountRequired, whilePrice, offerKey);\n                    amountRequired = 0;\n\n\n                }\n                if(offerKey==tokens[tokenNameIndex].buyOrderBook[whilePrice].offerLength && tokens[tokenNameIndex].buyOrderBook[whilePrice].offers[offerKey].amount==0){\n                    tokens[tokenNameIndex].amountBuyPrices--;\n                    if(whilePrice==tokens[tokenNameIndex].buyOrderBook[whilePrice].lowerPrice || tokens[tokenNameIndex].buyOrderBook[whilePrice].lowerPrice==0){\n                        tokens[tokenNameIndex].curBuyPrice=0;\n                    }\n                    else{\n                        tokens[tokenNameIndex].curBuyPrice = tokens[tokenNameIndex].buyOrderBook[whilePrice].lowerPrice;\n                        tokens[tokenNameIndex].buyOrderBook[tokens[tokenNameIndex].buyOrderBook[whilePrice].lowerPrice].higherPrice = tokens[tokenNameIndex].curBuyPrice; \n                    }\n                }\n                offerKey++;\n                }\n                whilePrice = tokens[tokenNameIndex].curBuyPrice;\n            }\n            if(amountRequired>0){\n                //place limit order for remaining amount of tokens\n                 sellToken(symbolName, priceInWei, amountRequired);\n            }\n        }\n    }\n    \n    function addSellOffer(uint8 tokenIndex, uint priceInWei, uint amount, address sender){\n        tokens[tokenIndex].sellOrderBook[priceInWei].offerLength++;\n        tokens[tokenIndex].sellOrderBook[priceInWei].offers[tokens[tokenIndex].sellOrderBook[priceInWei].offerLength] = Offer(amount, sender);\n        if(tokens[tokenIndex].sellOrderBook[priceInWei].offerLength==1){\n            tokens[tokenIndex].sellOrderBook[priceInWei].offerKey=1;\n            tokens[tokenIndex].amountSellPrices++;\n\n            uint currSellPrice = tokens[tokenIndex].curSellPrice;\n            uint highestSellPrice = tokens[tokenIndex].highestSellPrice;\n\n            if(highestSellPrice==0 || highestSellPrice<priceInWei){\n                if(currSellPrice==0){\n                    tokens[tokenIndex].sellOrderBook[priceInWei].higherPrice=0;\n                    tokens[tokenIndex].sellOrderBook[priceInWei].lowerPrice=0;\n                    tokens[tokenIndex].curSellPrice = priceInWei;\n                }\n                else{\n                    tokens[tokenIndex].sellOrderBook[highestSellPrice].higherPrice = priceInWei;\n                    tokens[tokenIndex].sellOrderBook[priceInWei].lowerPrice = highestSellPrice;\n                    tokens[tokenIndex].sellOrderBook[priceInWei].higherPrice = 0;\n                }\n                tokens[tokenIndex].highestSellPrice = priceInWei;\n            }\n            else if(currSellPrice>priceInWei){\n                //lowest sell price\n                tokens[tokenIndex].sellOrderBook[currSellPrice].lowerPrice = priceInWei;\n                tokens[tokenIndex].sellOrderBook[priceInWei].higherPrice = currSellPrice;\n                tokens[tokenIndex].sellOrderBook[priceInWei].lowerPrice = 0;\n                tokens[tokenIndex].curSellPrice = priceInWei;\n            }\n            else{\n                uint sellPrice = tokens[tokenIndex].curSellPrice;\n                bool posFound = false;\n                while(sellPrice>0 && !posFound){\n                    if(sellPrice<priceInWei && (tokens[tokenIndex].sellOrderBook[sellPrice].higherPrice>priceInWei)){\n                        tokens[tokenIndex].sellOrderBook[priceInWei].lowerPrice = sellPrice;\n                        tokens[tokenIndex].sellOrderBook[priceInWei].higherPrice = tokens[tokenIndex].sellOrderBook[sellPrice].higherPrice;\n                        tokens[tokenIndex].sellOrderBook[tokens[tokenIndex].sellOrderBook[sellPrice].higherPrice].lowerPrice = priceInWei;\n                        tokens[tokenIndex].sellOrderBook[sellPrice].higherPrice = priceInWei;\n                        posFound = true;\n                    }\n                    sellPrice = tokens[tokenIndex].sellOrderBook[sellPrice].higherPrice;\n                }\n            }\n\n        }\n    }\n\n    //ORDER MANAGEMENT\n    \n    function cancelOrder(string symbolName, bool isSellOrder, uint priceInWei, uint offerKey){\n        uint8 tokenNameIndex = getSymbolIndex(symbolName);\n        require(tokenNameIndex>0);\n        if(isSellOrder){\n            require(tokens[tokenNameIndex].sellOrderBook[priceInWei].offers[offerKey].who==msg.sender);\n            uint tokenAmount = tokens[tokenNameIndex].sellOrderBook[priceInWei].offers[offerKey].amount;\n            require(tokenBalanceForAddress[msg.sender][tokenNameIndex]+tokenAmount>=tokenBalanceForAddress[msg.sender][tokenNameIndex]);\n            tokenBalanceForAddress[msg.sender][tokenNameIndex]+=tokenAmount;\n            tokens[tokenNameIndex].sellOrderBook[priceInWei].offers[offerKey].amount=0;\n            SellOrderCanceled(tokenNameIndex, priceInWei, offerKey);\n        }else{\n            require(tokens[tokenNameIndex].buyOrderBook[priceInWei].offers[offerKey].who==msg.sender);\n            uint etherToRefund = tokens[tokenNameIndex].buyOrderBook[priceInWei].offers[offerKey].amount*priceInWei;\n            require(ethBalanceForAddress[msg.sender]+etherToRefund>=ethBalanceForAddress[msg.sender]);\n            ethBalanceForAddress[msg.sender]+=etherToRefund;\n            tokens[tokenNameIndex].buyOrderBook[priceInWei].offers[offerKey].amount=0;\n            BuyOrderCanceled(tokenNameIndex, priceInWei, offerKey);\n        }\n    }\n    \n    function getSellOrderBook(string symbolName)constant returns(uint[], uint[]){\n    uint8 tokenNameIndex = getSymbolIndex(symbolName);\n        require(tokenNameIndex>0);\n        uint[] memory arrPricesSell = new uint[](tokens[tokenNameIndex].amountSellPrices);\n        uint[] memory arrVolumeSell = new uint[](tokens[tokenNameIndex].amountSellPrices);\n\n        uint lowestSellPrice = tokens[tokenNameIndex].curSellPrice;\n        uint counter = 0;\n        if(tokens[tokenNameIndex].curSellPrice>0){\n        while(lowestSellPrice<=tokens[tokenNameIndex].highestSellPrice){\n            arrPricesSell[counter] = lowestSellPrice;\n\n            uint offerKey = tokens[tokenNameIndex].sellOrderBook[lowestSellPrice].offerKey;\n            uint vol = 0;\n            while(offerKey<=tokens[tokenNameIndex].sellOrderBook[lowestSellPrice].offerLength){\n                vol+=tokens[tokenNameIndex].sellOrderBook[lowestSellPrice].offers[offerKey].amount;\n                offerKey++;\n            }\n            arrVolumeSell[counter]=vol;\n\n            if(tokens[tokenNameIndex].sellOrderBook[lowestSellPrice].higherPrice==0){\n                break;\n            }\n            else{\n                lowestSellPrice = tokens[tokenNameIndex].sellOrderBook[lowestSellPrice].higherPrice;\n            }\n            counter++;\n\n        }\n    }\n    return (arrPricesSell, arrVolumeSell);\n\n        \n    }\n    \n    function getBuyOrderBook(string symbolName)constant returns(uint[], uint[]){\n        uint8 tokenNameIndex = getSymbolIndex(symbolName);\n        require(tokenNameIndex>0);\n        uint[] memory arrPricesBuy = new uint[](tokens[tokenNameIndex].amountBuyPrices);\n        uint[] memory arrVolumeBuy = new uint[](tokens[tokenNameIndex].amountBuyPrices);\n        uint lowestBuyPrice = tokens[tokenNameIndex].lowestBuyPrice;\n        uint counter = 0;\n        if(tokens[tokenNameIndex].curBuyPrice>0){\n            while(lowestBuyPrice<=tokens[tokenNameIndex].curBuyPrice){\n                arrPricesBuy[counter] = lowestBuyPrice;\n\n                uint offerKey = tokens[tokenNameIndex].buyOrderBook[lowestBuyPrice].offerKey;\n                uint volume = 0;\n                while(offerKey<=tokens[tokenNameIndex].buyOrderBook[lowestBuyPrice].offerLength){\n                    volume += tokens[tokenNameIndex].buyOrderBook[lowestBuyPrice].offers[offerKey].amount;\n                    offerKey++;\n                    \n                }\n                arrVolumeBuy[counter]=volume;\n                if(lowestBuyPrice == tokens[tokenNameIndex].curBuyPrice){\n                    break;\n                }\n                else{\n                    lowestBuyPrice = tokens[tokenNameIndex].buyOrderBook[lowestBuyPrice].higherPrice;\n                }\n                counter++;\n            }\n        }\n        return(arrPricesBuy, arrVolumeBuy);\n    }\n    \n    //String comparison function\n    \n    function stringComparison(string storage _a, string memory _b)internal returns(bool) {\n        \n        bytes storage a = bytes(_a);\n        bytes memory b = bytes(_b);\n        \n        if(a.length!=b.length){\n            return false;\n        }\n        \n        for(uint i=0;i<a.length;i++){\n            if(a[i]!=b[i]){\n                return false;\n            }\n        }\n        return true;\n    }\n}",
  "sourcePath": "/home/sameep/courses/udemy-ethereum/project1/contracts/Exchange.sol",
  "compiler": {
    "name": "solc",
    "version": "0.4.18+commit.9cf6e910.Emscripten.clang"
  },
  "schemaVersion": "1.0.1",
  "updatedAt": "2017-11-29T13:11:38.480Z"
}